:020000040800F2
:1000000060050020C101000827190008C11400087C
:1000100025190008F1020008A51D000800000000D5
:100020000000000000000000000000002B19000884
:10003000F302000800000000291900082D1900082B
:10004000DB010008DB010008DB010008DB01000820
:10005000DB010008DB010008DB010008DB01000810
:10006000DB010008DB010008DB010008DB01000800
:10007000DB010008DB010008DB010008DB010008F0
:10008000DB010008DB010008DB010008DB010008E0
:10009000DB010008DB010008DB010008DB010008D0
:1000A000DB010008DB010008DB010008DB010008C0
:1000B000DB010008DB010008DB010008DB010008B0
:1000C000DB010008DB010008DB010008DB010008A0
:1000D000DB010008DB010008DB010008DB01000890
:1000E000DB010008DB010008DB010008DB01000880
:1000F000DB010008DB010008DB010008DB01000870
:10010000DB010008DB010008DB010008DB0100085F
:10011000DB010008DB010008DB010008DB0100084F
:10012000DB010008DB010008DB010008DB0100083F
:10013000DB010008DB010008DB010008DB0100082F
:10014000DB010008DB010008DB010008DB0100081F
:10015000DB010008DB010008DB010008DB0100080F
:10016000DB010008DB010008DB010008DB010008FF
:10017000DB010008DB010008DB01000800000000D3
:10018000DB010008DB010008DB010008DB010008DF
:10019000DB010008DB010008DB010008DB010008CF
:1001A000DB010008DB010008DB010008DFF80CD0F0
:1001B00000F08CF800480047E51D000860050020AD
:1001C0000648804706480047FEE7FEE7FEE7FEE7F1
:1001D000FEE7FEE7FEE7FEE7FEE7FEE7B5190008EB
:1001E000AD0100082DE9F05F0546002092469B46D0
:1001F00088460646814640241BE02846414647463D
:10020000224600F053F853465A46C01A914110D383
:1002100011461846224600F03AF82D1A67EB0108FD
:100220004F4622460120002100F031F817EB00096B
:100230004E41201EA4F10104DFDC484631462A4627
:100240004346BDE8F09F40EA01039B0703D009E065
:1002500008C9121F08C0042AFAD203E011F8013BB2
:1002600000F8013B521EF9D27047D2B201E000F80B
:10027000012B491EFBD270470022F6E710B513464A
:100280000A4604461946FFF7F0FF204610BD202A13
:1002900004DB203A00FA02F1002070479140C2F1DD
:1002A000200320FA03F3194390407047202A04DB0F
:1002B000203A21FA02F00021704721FA02F3D040DF
:1002C000C2F120029140084319467047064C074D81
:1002D00006E0E06840F0010394E807009847103416
:1002E000AC42F6D3FFF766FFCC1E0008EC1E0008F8
:1002F000FEE7704770B5044600F026F90546601C1D
:1003000002D004480078044400F01EF9401BA042CB
:10031000FAD370BD1C0000202DE9F84FDFF8F4A1DE
:10032000002201240AF1040B03254FF00F090BF101
:10033000040E00BF0B6804FA02F63340B3426FD1DB
:100340000F7907F00307012F01D0022F16D187681C
:100350004FEA420805FA08FC27EA0C07D1F80CC05E
:100360000CFA08FC4CEA070CC0F808C04768B74311
:100370000E79C6F3001696403E4346600E79F6436A
:10038000B6070AD0C7684FEA420C05FA0CF6B74325
:100390008E6806FA0CF63E43C6600E7906F0030638
:1003A000022E10D1D60800EB8608D8F82060570737
:1003B0004FEAD76C09FA0CF7BE430F6907FA0CF73E
:1003C0003743C8F8207006684FEA420C05FA0CF76C
:1003D000BE430F7907F0030707FA0CF737430760AE
:1003E0004E68F6001CD54C4E376847F4804737609E
:1003F000366822F0030706F480460096474E07EB66
:10040000060CDCF8086897073F0F09FA07F826EA98
:100410000806DFF80C81404503D14FF0000841E0A9
:1004200072E0DFF80081404502D14FF0010839E069
:10043000DFF8F480404502D14FF0020832E0DFF8E7
:10044000EC80404502D14FF003082BE0DFF8E0805C
:10045000404502D14FF0040824E0DFF8D880404541
:1004600002D14FF005081DE0DFF8CC80404502D1F5
:100470004FF0060816E0DFF8C480404502D14FF087
:1004800007080FE0DFF8B880404502D14FF00808B8
:1004900008E0DFF8B080404502D14FF0090801E0E4
:1004A0004FF00A0808FA07F848EA0608CCF8088866
:1004B000DAF800605746D1F804C09E435FEACC3CAE
:1004C00000D51E433E60DBF800605F46D1F804C0F3
:1004D0009E435FEA8C3C00D51E433E60DEF8006020
:1004E0007746D1F804C09E435FEACC2C00D51E436A
:1004F0003E60084F0C373E68D1F804C09E435FEA67
:100500008C2C00D51E433E60521C102AFFF412AF03
:10051000BDE8F88F003C0140443802400030014003
:10052000000002400004024000080240000C0240AB
:10053000001002400014024000180240001C02405B
:1005400000200240002402400148806870470000FB
:100550001C00002090F83D20202A01D00220704786
:10056000242280F83D200268136823F00103136001
:100570000268536A23F0100353620268536A0B4304
:10058000536201680A6842F001020A60202180F883
:100590003D100020704790F83D20202A01D0022015
:1005A0007047242280F83D200268136823F001037D
:1005B000136003685A6A22F00F020A4391B259622B
:1005C00001680A6842F001020A60202180F83D10AB
:1005D0000020704770B5040025D094F83D00002538
:1005E00020B984F83C50204600F04EF9242084F8CD
:1005F0003D002068016821F0010101602068016868
:1006000041F4004101602068016821F4004101606B
:1006100000F094FA4D4A6168914201D84C4900E0DB
:100620004C49884201D2012070BD4B492368B0FB80
:10063000F1F15E6826F03F060E435E606368934208
:1006400006D94FF4967359434FF47A73B1FBF3F123
:100650002368491C1E6A26F03F063143196261680F
:10066000914210D84900401EB0FBF1F2521CC2F377
:100670000B02042A01D2042022E0B0FBF1F0401C5E
:10068000C0F30B001CE0A268F2B301EBC10303EB63
:100690000116431EB3FBF6F35B1C43F480431B05BA
:1006A00049D092B301EBC10202EB0111401EB0FB35
:1006B000F1F0401CC0F30B0040F4804040F40040D7
:1006C0002168CA694CF6FF739A431043C861D4E9A4
:1006D000071001432068026822F0C0021143016044
:1006E000D4E9030101432068826848F2FF339A434A
:1006F00011438160D4E9050108432168CA6822F0EA
:10070000FF021043C86001E00EE016E020680168B7
:1007100041F0010101602564202084F83D0025633B
:1007200084F83E50002070BD01EB4106431EB3FB30
:10073000F6F35B1CB3E70120C2E701EB4101401E69
:10074000B0FBF1F0401CC0F30B00B7E7A08601003E
:1007500080841E0000093D0040420F002DE9F84F43
:100760001F4690468A460446DDF82890FFF7ECFEC7
:10077000054694F83D0020287FD1192301224049E5
:100780002046009500F028FF002876D194F83C0020
:10079000012872D0012084F83C0020680168C90754
:1007A00003D1016841F0010101602068016821F472
:1007B00000610160212084F83D00102084F83E0093
:1007C00000262664C4F824806785608D20852D4826
:1007D000E0622B464A465146204600F089FE90B919
:1007E000206841698069009036E02A4649462046E3
:1007F00000F071FF50B1206C042804D1206801681A
:1008000041F4007101600120BDE8F88F606A216841
:1008100000780861606A401C6062618D491E6185D4
:10082000218D491E89B2218522685369DB435B070C
:100830000BD451B100781061606A401C6062608D19
:10084000401E6085208D401E20852A464946204650
:1008500000F09CFE0028CED1208D0028C5D154F890
:100860003D0B016841F400710160202004F81E096D
:10087000E67766770020C7E7FFE70220C4E70000BD
:10088000020010000000FFFF10B586B004461421DE
:100890006846FFF7F1FC13492068884220D11248CE
:1008A000016841F0020101600068694600F0020041
:1008B0000590C0200090122001900120029003209A
:1008C0000390042004900948FFF726FD06481030E5
:1008D000016841F400110160006800F40010059007
:1008E00006B010BD00540040303802400004024001
:1008F0000248816802781144816070471C00002022
:100900000B4810B5016841F400710160016841F4C1
:1009100080610160016841F480710160032000F092
:1009200061F8002000F006F800F024F8002010BD67
:10093000003C024070B50D4D04464FF47A712878A2
:10094000B1FBF0F00A490968B1FBF0F000F0FEFAE3
:1009500048B9102C07D200222146501E00F022F880
:1009600000206C6070BD012070BD00001C000020E4
:10097000280000200A4808B5016841F48041016060
:10098000006800F4804000900548001F016841F0B5
:1009900080510160006800F08050009008BD0000A8
:1009A00044380240F0B40E4B1B680C46C3F30223DC
:1009B000C3F10705042D00D90425191D072901D20B
:1009C000002300E0DB1E012606FA05F1491E214046
:1009D00099409E40761E16403143F0BC01F0E3B9C9
:1009E0000CED00E0064900F0070208684FF6FF032F
:1009F000184040EA0220034A104308607047000094
:100A00000CED00E00000FA052DE9F0470E46050068
:100A100065D0DFF81481D8F80000F7B200F00F00BD
:100A2000B04207D288F80070D8F8000000F00F003C
:100A3000B04254D128683D4C810712D5400703D5F8
:100A4000206840F4E05020602878000703D5206833
:100A500040F4604020602068A96820F0F00008435E
:100A600020602878C0072DD03049686808390128EF
:100A700012D0022813D0032811D009688907002951
:100A80002DDA216821F0030101432160FFF75CFDAD
:100A9000814641F2883A0EE009688903EFE7096868
:100AA0008901ECE7FFF750FDA0EB0901514502D9A0
:100AB0000320BDE8F0872068696800F00C00B0EB07
:100AC000810FEFD1D8F80010404601F00F01B1427C
:100AD00007D90770006800F00F00B04201D0012074
:100AE000E7E72878400705D52068E96820F4E0505A
:100AF000084320602878000706D52068296920F47B
:100B0000604040EAC100206000F038F82168084ADF
:100B1000C1F30311515CC8400649086006480068EB
:100B2000FFF708FF0020C4E7003C024008380240FD
:100B3000B41E0008280000202000002004480549B9
:100B400000680968044AC1F38221515CC8407047BB
:100B50002800002008380240C41E00080448054947
:100B600000680968044AC1F34231515CC8407047CB
:100B70002800002008380240C41E0008154810B59F
:100B8000006810F00C02144813D01449042A0FD046
:100B9000082A0ED10F4C241F2268236802F03F025E
:100BA0005B0207D52068C0F38810A0FB010106E0B6
:100BB000084610BD2168C1F38811A1FB0001002384
:100BC000FFF710FB2168C1F30141491C4900B0FB4C
:100BD000F1F010BD083802400024F40040787D0197
:100BE0002DE9F84F04006ED02078DFF84C93C00751
:100BF000A9F104054AD009F104000168C1F381019B
:100C0000012908D00068C0F3810002280AD1D9F870
:100C10000000400206D52868800337D560680028A8
:100C2000E1D033E06068B0F5803F10D0B0F5A02F80
:100C3000286810D020F480302860286820F48020B4
:100C400028606068A8B1FFF77FFC06460DE02868C1
:100C500040F48030F4E740F480202860F7E700BFDC
:100C6000FFF772FC801B642873D828688003F7D5CF
:100C70000CE0FFF769FC064605E000BFFFF764FCE7
:100C8000801B6428F0D828688003F7D42078DFF828
:100C9000AC8280074FF0000A3ED5A748001D0168CE
:100CA00011F00C0F08D00068C0F3810002280BD1AE
:100CB000D9F80000400207D42868800716D5E068FC
:100CC000012800D112E033E1E068B8B10120C8F892
:100CD0000000FFF739FC064605E000BFFFF734FCD3
:100CE000801B0228C0D828688007F7D528682169AA
:100CF00020F0F80040EAC10028600DE0C8F800A02C
:100D0000FFF722FC064604E0FFF71EFC801B0228CA
:100D10001FD828688007F7D42078000722D5864F8F
:100D200087486169703771B101210160FFF70CFCE0
:100D3000064604E0FFF708FC801B022809D8386843
:100D40008007F7D50EE0C0F800A0FFF7FDFB0646D0
:100D500005E082E0FFF7F8FB801B02287DD83868A9
:100D60008007F7D42078400768D5DFF8CCB100279A
:100D70000BF13C0BDBF80000C0000BD4DBF80010DB
:100D800041F08051CBF80010DBF80000012700F0A3
:100D9000805000906B4E3068C00510D4306840F42D
:100DA00080703060FFF7D0FB009005E0FFF7CCFBD0
:100DB0000099401A022850D83068C005F6D55E4E1A
:100DC000A0686C3601280FD00528306810D020F0BC
:100DD00001003060306820F004003060A068B8B1D5
:100DE000FFF7B2FB00900FE0306840F00100F4E73D
:100DF00040F004003060F7E7FFF7A6FB0099411AC6
:100E000041F28830814266D830688007F4D50EE020
:100E1000FFF79AFB009007E0FFF796FB0099411A55
:100E200041F28830814256D830688007F4D42FB11F
:100E3000DBF8001021F08051CBF80010A069C8B396
:100E40003D49091D0968C1F3810102294AD00228E0
:100E5000504607D0C8F8600000E03CE0FFF774FBA4
:100E600004463BE04746C8F86000FFF76DFB0646C6
:100E700005E000BFFFF768FB801B02282BD828681D
:100E80008001F7D4D4E907010843A16A2E4A490832
:100E900002EB0141626A41EA8211084394F82C1086
:100EA00040EA0161C9F8001001203866FFF74CFBE9
:100EB000044606E03EE000BFFFF746FB001B0228A9
:100EC00009D828688001F7D534E000BFFFF73CFB64
:100ED000001B022802D90320BDE8F88F2868800192
:100EE000F4D427E00128F7D0D9F80000E26900F433
:100EF000800191421CD1226A00F03F01914217D13A
:100F000047F6C071626A0140B1EB821F10D1A26A3C
:100F10004FF0FF3300F4403103EB5202B1EB024FCC
:100F200006D194F82C1000F07060B0EB016F01D086
:100F30000120D1E70020CFE70438024000004742FB
:100F4000800E4742007000400000FFFF10B5401EB9
:100F5000B0F1807F01D3012010BD4FF0E02460612B
:100F60000F21601700F01FFF0020A0610720206103
:100F7000002010BD10B590F83C20012A22D001229B
:100F800080F83C20CA688C6822F4407222434C6886
:100F900022F4806222430C6822F4006222430C692E
:100FA00022F4805222434C6922F400522243C96940
:100FB000002322F480420A4301684A6480F83C30EE
:100FC000002010BD022010BD70B590F83C20012A11
:100FD00032D0012480F83C40022280F83D20036892
:100FE0005A689D6822F070060A6832435A60134BB3
:100FF00002689A4214D0B2F1804F11D0104B9A423D
:101000000ED0104B9A420BD00F4B9A4208D00F4B88
:101010009A4205D00E4B9A4202D00E4B9A4204D10E
:10102000496825F080031943916080F83D40002114
:1010300080F83C10084670BD022070BD00000140E1
:101040000004004000080040000C00400004014083
:10105000004001400018004010B5040003D094F88F
:101060003D0010B107E0012010BD002084F83C00D5
:10107000204600F01FF8022084F83D00211D206862
:1010800000F0A0FC012084F8460084F83E0084F8BB
:101090003F0084F8400084F8410084F8420084F85E
:1010A000430084F8440084F8450084F83D000020A3
:1010B00010BD000008B500680649884208D10648FE
:1010C000016841F001010160006800F0010000903A
:1010D00008BD0000000001404438024070B50446DD
:1010E00090F83C00012817D0012584F83C500220DC
:1010F00084F83D002068826822F0770222F47F4263
:1011000082600868502830D00DDC20284DD005DCE6
:1011100098B310283BD148E0022070BD302844D05D
:10112000402834D139E0602828D0702806D0B0F5A6
:10113000805F2CD0B0F5005F29D10AE0CB68D1E9FF
:101140000121206800F0AFFC2068816841F0770140
:1011500009E0CB68D1E90121206800F0A4FC2068F7
:10116000816841F48041816011E0CA684968206863
:1011700000F06EFD5021206807E016E0CA6849685B
:10118000206800F076FD6021206800F096FC84F86D
:101190003D50002084F83C0070BDCA684968206852
:1011A00000F056FD40212068EFE722680146104616
:1011B000EBE7000010B586B0044614216846FFF73F
:1011C0005BF80E492068884216D10D48002102685C
:1011D00042F010020260006800F0100005904FF429
:1011E000206000900220CDE901010120CDE903102B
:1011F00069460448FFF790F806B010BD00000140B2
:10120000303802400010024070B5044690F83C00AF
:101210000D4601280AD0012084F83C0042B1042A7E
:1012200018D0082A2AD00C2A4DD139E0022070BDEE
:10123000206800F04BFC2068816941F00801816161
:101240002068816921F004018161206881692A692F
:10125000114311E0206800F069FC2068816941F4C5
:10126000006181612068816921F480618161206869
:1012700081692A6941EA0221816124E0206800F045
:101280008BFC2068C16941F00801C1612068C16917
:1012900021F00401C1612068C1692A69114311E08C
:1012A000206800F0ADFC2068C16941F40061C161B3
:1012B0002068C16921F48061C1612068C1692A691F
:1012C00041EA0221C161002084F83C0070BD10B5E4
:1012D000040003D094F83D0010B107E0012010BDD8
:1012E000002084F83C00204600F01EF8022084F81C
:1012F0003D00211D206800F065FB012084F84600B8
:1013000084F83E0084F83F0084F8400084F84100EF
:1013100084F8420084F8430084F8440084F84500CF
:1013200084F83D00002010BD7047000010B5044651
:10133000022249B104290ED0082913D094F84100A3
:10134000012816D0012010BD94F83E000128F9D1E3
:1013500084F83E200FE094F83F000128F2D184F891
:101360003F2008E094F840000128EBD184F84020A9
:1013700001E084F841200122206800F087FB164933
:101380002068164A884201D0904203D1436C43F44E
:10139000004343642068884213D0B0F1804F10D0DE
:1013A0000F4988420DD00F4988420AD00E49884221
:1013B00007D0904205D00D49884202D00C4988429E
:1013C00004D1816801F00701062903D0016841F0CA
:1013D00001010160002010BD000001400004014037
:1013E0000004004000080040000C004000400140A4
:1013F0000018004070B5040004D094F83D000025AA
:1014000010B106E0012070BD84F83C50204600F089
:1014100023F8242084F83D002068C16821F400519D
:10142000C160204600F038FC2068016921F4904139
:1014300001612068416921F02A0141612068C16889
:1014400041F40051C1602564202084F83D0084F8F7
:101450003E00002070BD000010B586B00446142187
:101460006846FEF709FF13492068884220D11248D8
:101470000021026842F400320260006800F400308B
:1014800005900D481038026842F0010202600068C1
:1014900000F0010005900C2000900220CDE9010130
:1014A000032003900720049069460448FEF734FFA8
:1014B00006B010BD00440040403802400000024029
:1014C000FEE701684A69D24352050FD46FF4806287
:1014D0004A61002140F8301F202242738173026963
:1014E00042F004020261017301207047002070473E
:1014F000F8B50446C06A1E460D461746082807D0B0
:10150000012805D010F5803F02D0206B122804D1AD
:101510002068016841F480710160134600224FF099
:1015200001112046009600F057F840B1206800688D
:10153000C00502D54FF4007020640320F8BD206977
:10154000B0F5804F0ED00620216800EAD51040F09B
:10155000F000086133463A460B49204600F070F827
:1015600078B902E005F0FE0000E0E8B22168086109
:10157000054933463A46891F204600F061F80028A5
:10158000DCD00120F8BD00000800010070B516464F
:101590000D4604460DE02046FFF793FF08B10120F9
:1015A00070BD681C05D0FEF7CFFF801BA84207D88E
:1015B00035B120684069C0434007ECD4002070BDBD
:1015C000002044F8300F20216173A073216941F09D
:1015D000200121612073E2E72DE9F0471E46904685
:1015E0000D460446C1F30747DDF8209008E0701C63
:1015F00006D0FEF7A9FFA0EB0900B0420FD876B1E4
:101600002068012F18D0806925EA00000004000C32
:1016100014D000214145EAD00020BDE8F087002029
:1016200044F8300F20216173A073216941F020013B
:10163000216120730120F0E74069E5E70121E9E736
:101640002DE9F0479A4691460E46044600254FF094
:101650002008C1F3074725E020684069C0434005E2
:1016600014D42068016841F40071016021686FF4AE
:1016700080604861256384F83D8084F83E50206C8A
:1016800040F00400206484F83C501FE0B9F1FF3FB3
:1016900008D0FEF759FFA0EB0A0149450CD8B9F173
:1016A000000F09D02068012F13D0806926EA0000BE
:1016B0000004000C0BD0CFE744F8305F84F80D80B5
:1016C000A573206940F02000206125730120BDE84A
:1016D000F0874069EAE770B516460D4604460DE00E
:1016E0002046FFF7EEFE08B1012070BD681C05D052
:1016F000FEF72AFF801BA84207D835B12068406951
:10170000C0430006ECD4002070BD002044F8300F28
:1017100020216173A073216941F0200121612073B0
:10172000E2E700001CB502238DF8040064208DF868
:1017300005100090D02101AA0148FFF70FF81CBD49
:101740002C00002070B5044680216B20FFF7EAFFD3
:101750006420FEF7CFFD20782179402200F00700B9
:1017600002EA811101436B20FFF7DCFF6420FEF7E2
:10177000C1FDE07800F007011A20FFF7D3FF607881
:10178000182505EAC0011B20FFF7CCFFA07805EA69
:10179000C0011C20FFF7C6FF042000F045F8A17827
:1017A0009FED150A154831B1012907D0022908D04B
:1017B00003290AD112E080ED030A06E0DFED100AEA
:1017C00001E0DFED100AC0ED030A617849B101299B
:1017D0000AD002290BD003290DD10AE0DFED0A0A55
:1017E000F1E79FED0A0A04E09FED090A01E09FED91
:1017F000090A80ED040A70BD00007A3D0000002057
:101800000000FA3D00007A3E0000FA3E0000FA3B7C
:1018100000007A3C0000FA3C014654220148FEF7E1
:1018200012BD00002C00002001461920FFF77ABFEE
:101830000E4810B50C4901600D49416000214FF47C
:1018400080428160C0E9031241618161C16101622E
:10185000FEF7C0FE00210548FEF77CFEBDE8104003
:1018600000210248FEF797BE00540040800000208F
:10187000A086010010B596B000240F941094119426
:10188000129413941C2168461494FEF7F5FC202151
:1018900007A8FEF7F1FC2248204901605421C0E965
:1018A00001146421C0E9031444618461FFF7D4FB8F
:1018B0004FF480500F900FA91948FFF70FFC1848FC
:1018C000FFF705FD139413A915481494FFF77CFB4B
:1018D000602000903220CDE9010403940494059423
:1018E000002269460E480694FFF78EFC04226946E2
:1018F0000B48FFF789FC0794089409944FF40050B3
:101900000A94CDE90B4007A905480E94FFF732FB76
:101910000348FFF74FFC16B010BD00000000014067
:10192000D4000020FEE7FEE770477047FEF7E0BFF7
:1019300030B593B030216846FEF79EFC14210CA808
:10194000FEF79AFC19480025016841F080510160BA
:10195000006800F0805011901548016821F4404162
:1019600041F4804101600068022400F4404011907D
:101970000120039010200490009406940820CDE9E3
:1019800007505420CDE9090404200B906846FFF766
:1019900027F90CA90F2081E83100E002CDE90F05FD
:1019A00002210CA8FFF730F813B030BD40380240D8
:1019B000007000400248016841F470010160704706
:1019C00088ED00E0F0B50268254C264D264E274FE5
:1019D000274B4FF0804CA04209D0604507D0A84269
:1019E00005D0B04203D0B84201D0984204D122F0D1
:1019F000700E4A6842EA0E02A0421BD0604519D020
:101A0000A84217D0B04215D0B84213D0984211D096
:101A1000184DA8420ED0184DA8420BD0174DA84221
:101A200008D0174DA84205D0164DA84202D0164D39
:101A3000A84203D122F44075CA682A434D6922F0B6
:101A400080022A4302608A68C2620A688262A042F7
:101A500001D0984201D10969016301214161F0BDC2
:101A6000000001400004004000080040000C00405D
:101A70000004014000400140004401400048014092
:101A800000180040001C00400020004010B501F08C
:101A90001F030121046A99408C430462016A9A4041
:101AA0001143016210BD10B5846842EA032224F498
:101AB0007F440A432243826010BD826822F0700294
:101AC0000A4342F00701816070470000F0B5026AE6
:101AD00022F001020262036A42688469124E24F015
:101AE00073050C682C4323F002058B682B430D4DC6
:101AF000A84201D0B04205D123F00807CB683B4390
:101B000023F00403A84201D0B04205D14D6922F46C
:101B1000407215438A692A4342608461496841637F
:101B20000362F0BD0000014000040140F0B5026A0C
:101B300022F010020262026A436884690D6824F48C
:101B4000E64444EA05248D6822F0200242EA0512A8
:101B50000F4D104EA84201D0B04206D1CF6822F0FE
:101B6000800242EA071222F04002A84201D0B042AD
:101B700007D14D6923F4406343EA85038D6943EA45
:101B8000850343608461496881630262F0BD00009F
:101B90000000014000040140F0B5026A22F48072A6
:101BA0000262026A4368C46922F4007224F0730579
:101BB0000C68124E2C438D6842EA05220E4DA84255
:101BC00001D0B04206D1CF6822F4006242EA072277
:101BD00022F48062A84201D0B04207D14D6923F4BB
:101BE000405343EA05138D6943EA05134360C4611A
:101BF0004968C1630262F0BD000001400004014079
:101C000030B5026A22F480520262046A4268C369F3
:101C10000D6823F4E64343EA05238D6824F4005459
:101C200044EA0534084DA84202D0084DA84204D128
:101C30004D6922F4804242EA85124260C3614968DC
:101C40000164046230BD0000000001400004014056
:101C500010B5036A046A24F001040462846924F064
:101C6000F00444EA021423F00A020A438461026287
:101C700010BD10B5036A23F0100303628369046A80
:101C800023F4704343EA023224F0A00343EA011133
:101C90008261016210BD000070B5044600680169F0
:101CA000E26821F44051114301612169A068E269B1
:101CB00008436169114308432168CA6849F20C630B
:101CC0009A430243CA6020684169A26921F44071C5
:101CD0001143416131492068884202D0304988422D
:101CE00002D1FEF73BFF01E0FEF728FFE269002387
:101CF000192164253226B2F5004F626828D0A0FB76
:101D00000101930F9200FEF76DFA0146B0FBF5F06A
:101D10006FF01802504301EB800006EB0010B0FB9F
:101D2000F5F000F0F002B1FBF5F002EB0012B1FBB0
:101D3000F5F06FF01803584301EB800006EB00103C
:101D4000B0FBF5F000F00F0021681044886070BD12
:101D5000A0FB010192185B41FEF744FA0146B0FB7B
:101D6000F5F00201B1FBF5F06FF01803584301EBF9
:101D7000800006EBC000B0FBF5F000F0F80002EBCD
:101D80004002B1FBF5F0584301EB800006EBC000C8
:101D9000B0FBF5F000F00700D6E7000000100140AE
:101DA00000140140FEE70907090E002804DB00F1DA
:101DB000E02080F80014704700F00F0000F1E020F0
:101DC00080F8141D704702E008C8121F08C1002ADD
:101DD000FAD170477047002001E001C1121F002AAC
:101DE000FBD170470EB5FEF78BFDFFF7A1FD2D4827
:101DF0000024016841F001010160016801F0010166
:101E00000291016841F010010160016801F01001C8
:101E10000291016841F002010160006800F00200D7
:101E20000290FFF705FD21481F4901604FF4E131A1
:101E3000C0E901140C21C460C0E904418461C4619B
:101E4000FFF7D8FAFFF716FD18489C38FFF7E4FCB7
:101E500003208DF802008DF8004001208DF803006A
:101E60008DF801008DF804406846FFF76BFC0F48C1
:101E700000214838FFF75AFA0C4804214838FFF788
:101E800055FA64250A4C19264FF47A776563A663E0
:101E90003846FEF72FFA6663A5633846FEF72AFA3E
:101EA000F4E7000030380240004400401C010020EC
:101EB00000000140000000000000000001020304D7
:101EC000060708090000000001020304EC1E0008D8
:101ED000000000202C000000C61D0008181F00088C
:101EE0002C00002034050000D61D00080000000072
:101EF00000000000000000000000000000000000E2
:101F000000000000000000000100000010000000C0
:081F1000000000000024F400B1
:04000005080001AD41
:00000001FF
